{
    "_format": "hh-sol-artifact-1",
    "contractName": "WhiteList",
    "sourceName": "contracts/WhiteList.sol",
    "abi": [
        {
            "inputs": [
                {
                    "internalType": "uint256",
                    "name": "_maxWhitelistedAddress",
                    "type": "uint256"
                }
            ],
            "stateMutability": "nonpayable",
            "type": "constructor"
        },
        {
            "inputs": [
                {
                    "internalType": "address",
                    "name": "",
                    "type": "address"
                }
            ],
            "name": "Whitelistedornot",
            "outputs": [
                {
                    "internalType": "bool",
                    "name": "",
                    "type": "bool"
                }
            ],
            "stateMutability": "view",
            "type": "function"
        },
        {
            "inputs": [],
            "name": "addWhiteListing",
            "outputs": [],
            "stateMutability": "nonpayable",
            "type": "function"
        },
        {
            "inputs": [],
            "name": "maxWhitelistedAddress",
            "outputs": [
                {
                    "internalType": "uint256",
                    "name": "",
                    "type": "uint256"
                }
            ],
            "stateMutability": "view",
            "type": "function"
        },
        {
            "inputs": [],
            "name": "presentNumofWhiteListing",
            "outputs": [
                {
                    "internalType": "uint256",
                    "name": "",
                    "type": "uint256"
                }
            ],
            "stateMutability": "view",
            "type": "function"
        }
    ],
    "bytecode": "0x608060405234801561001057600080fd5b506040516105d43803806105d48339818101604052810190610032919061007a565b80600081905550506100a7565b600080fd5b6000819050919050565b61005781610044565b811461006257600080fd5b50565b6000815190506100748161004e565b92915050565b6000602082840312156100905761008f61003f565b5b600061009e84828501610065565b91505092915050565b61051e806100b66000396000f3fe608060405234801561001057600080fd5b506004361061004c5760003560e01c806356bbd67d14610051578063772a99881461008157806381bacbf01461008b578063e38ea00c146100a9575b600080fd5b61006b60048036038101906100669190610297565b6100c7565b60405161007891906102df565b60405180910390f35b6100896100e7565b005b610093610228565b6040516100a09190610313565b60405180910390f35b6100b161022e565b6040516100be9190610313565b60405180910390f35b60016020528060005260406000206000915054906101000a900460ff1681565b600160003373ffffffffffffffffffffffffffffffffffffffff1673ffffffffffffffffffffffffffffffffffffffff16815260200190815260200160002060009054906101000a900460ff1615610174576040517f08c379a000000000000000000000000000000000000000000000000000000000815260040161016b906103b1565b60405180910390fd5b600254600054116101ba576040517f08c379a00000000000000000000000000000000000000000000000000000000081526004016101b190610443565b60405180910390fd5b60018060003373ffffffffffffffffffffffffffffffffffffffff1673ffffffffffffffffffffffffffffffffffffffff16815260200190815260200160002060006101000a81548160ff02191690831515021790555060016002546102209190610492565b600281905550565b60005481565b60025481565b600080fd5b600073ffffffffffffffffffffffffffffffffffffffff82169050919050565b600061026482610239565b9050919050565b61027481610259565b811461027f57600080fd5b50565b6000813590506102918161026b565b92915050565b6000602082840312156102ad576102ac610234565b5b60006102bb84828501610282565b91505092915050565b60008115159050919050565b6102d9816102c4565b82525050565b60006020820190506102f460008301846102d0565b92915050565b6000819050919050565b61030d816102fa565b82525050565b60006020820190506103286000830184610304565b92915050565b600082825260208201905092915050565b7f557365722068617320416c7265616479206265656e2057686974654c6973746560008201527f6400000000000000000000000000000000000000000000000000000000000000602082015250565b600061039b60218361032e565b91506103a68261033f565b604082019050919050565b600060208201905081810360008301526103ca8161038e565b9050919050565b7f4e756d626572206f662057686974656c697374696e67204c696d69742068617360008201527f2072656163686564000000000000000000000000000000000000000000000000602082015250565b600061042d60288361032e565b9150610438826103d1565b604082019050919050565b6000602082019050818103600083015261045c81610420565b9050919050565b7f4e487b7100000000000000000000000000000000000000000000000000000000600052601160045260246000fd5b600061049d826102fa565b91506104a8836102fa565b9250827fffffffffffffffffffffffffffffffffffffffffffffffffffffffffffffffff038211156104dd576104dc610463565b5b82820190509291505056fea26469706673582212203b3e45087ed60d970c0eb497675abe05889846a874f02a56669438fd9d22c11764736f6c63430008090033",
    "linkReferences": {},
    "deployedLinkReferences": {}
}